{
  "_format": "hh-sol-artifact-1",
  "contractName": "Quiz",
  "sourceName": "contracts/Quiz.sol",
  "abi": [
    {
      "inputs": [
        {
          "internalType": "uint256",
          "name": "_stake",
          "type": "uint256"
        }
      ],
      "stateMutability": "nonpayable",
      "type": "constructor"
    },
    {
      "inputs": [
        {
          "internalType": "address payable",
          "name": "winner",
          "type": "address"
        }
      ],
      "name": "payout",
      "outputs": [],
      "stateMutability": "nonpayable",
      "type": "function"
    },
    {
      "stateMutability": "payable",
      "type": "receive"
    }
  ],
  "bytecode": "0x608060405234801561001057600080fd5b506040516103843803806103848339818101604052602081101561003357600080fd5b8101908080519060200190929190505050336000806101000a81548173ffffffffffffffffffffffffffffffffffffffff021916908373ffffffffffffffffffffffffffffffffffffffff16021790555080600181905550506102e98061009b6000396000f3fe6080604052600436106100225760003560e01c80630b7e9c441461008857610083565b36610083576001543414610081576040517f08c379a000000000000000000000000000000000000000000000000000000000815260040180806020018281038252602e81526020018061025e602e913960400191505060405180910390fd5b005b600080fd5b34801561009457600080fd5b506100d7600480360360208110156100ab57600080fd5b81019080803573ffffffffffffffffffffffffffffffffffffffff1690602001909291905050506100d9565b005b60008054906101000a900473ffffffffffffffffffffffffffffffffffffffff1673ffffffffffffffffffffffffffffffffffffffff163373ffffffffffffffffffffffffffffffffffffffff161461017d576040517f08c379a000000000000000000000000000000000000000000000000000000000815260040180806020018281038252602881526020018061028c6028913960400191505060405180910390fd5b60003073ffffffffffffffffffffffffffffffffffffffff163190506000601482816101a557fe5b04905060008054906101000a900473ffffffffffffffffffffffffffffffffffffffff1673ffffffffffffffffffffffffffffffffffffffff166108fc829081150290604051600060405180830381858888f1935050505015801561020e573d6000803e3d6000fd5b508273ffffffffffffffffffffffffffffffffffffffff166108fc8284039081150290604051600060405180830381858888f19350505050158015610257573d6000803e3d6000fd5b5050505056fe416c6c20706c6179657273206861766520746f20636f6e74726962757465207468652073616d6520616d6f756e744f6e6c7920746865206465706c6f7965722063616e207472696767657220746865207061796f7574a2646970667358221220fbb21eb3cff9a1a1af7432dfc7301d7bb8f41d3089cc1066f939c1c5ea83038d64736f6c63430007030033",
  "linkReferences": {},
  "deployedLinkReferences": {}
}