{
  "_format": "hh-sol-artifact-1",
  "contractName": "Quiz",
  "sourceName": "contracts/Quiz.sol",
  "abi": [
    {
      "inputs": [
        {
          "internalType": "uint256",
          "name": "_stake",
          "type": "uint256"
        }
      ],
      "stateMutability": "nonpayable",
      "type": "constructor"
    },
    {
      "inputs": [],
      "name": "contributeToPrizeFund",
      "outputs": [],
      "stateMutability": "payable",
      "type": "function"
    },
    {
      "inputs": [
        {
          "internalType": "address payable",
          "name": "winner",
          "type": "address"
        }
      ],
      "name": "payout",
      "outputs": [],
      "stateMutability": "nonpayable",
      "type": "function"
    }
  ],
  "bytecode": "0x608060405234801561001057600080fd5b506040516103903803806103908339818101604052602081101561003357600080fd5b8101908080519060200190929190505050336000806101000a81548173ffffffffffffffffffffffffffffffffffffffff021916908373ffffffffffffffffffffffffffffffffffffffff16021790555080600181905550506102f58061009b6000396000f3fe6080604052600436106100295760003560e01c80630b7e9c441461002e5780639d8360271461007f575b600080fd5b34801561003a57600080fd5b5061007d6004803603602081101561005157600080fd5b81019080803573ffffffffffffffffffffffffffffffffffffffff169060200190929190505050610089565b005b61008761020d565b005b60008054906101000a900473ffffffffffffffffffffffffffffffffffffffff1673ffffffffffffffffffffffffffffffffffffffff163373ffffffffffffffffffffffffffffffffffffffff161461012d576040517f08c379a00000000000000000000000000000000000000000000000000000000081526004018080602001828103825260288152602001806102986028913960400191505060405180910390fd5b60003073ffffffffffffffffffffffffffffffffffffffff1631905060006014828161015557fe5b04905060008054906101000a900473ffffffffffffffffffffffffffffffffffffffff1673ffffffffffffffffffffffffffffffffffffffff166108fc829081150290604051600060405180830381858888f193505050501580156101be573d6000803e3d6000fd5b508273ffffffffffffffffffffffffffffffffffffffff166108fc8284039081150290604051600060405180830381858888f19350505050158015610207573d6000803e3d6000fd5b50505050565b6001543414610267576040517f08c379a000000000000000000000000000000000000000000000000000000000815260040180806020018281038252602e81526020018061026a602e913960400191505060405180910390fd5b56fe416c6c20706c6179657273206861766520746f20636f6e74726962757465207468652073616d6520616d6f756e744f6e6c7920746865206465706c6f7965722063616e207472696767657220746865207061796f7574a264697066735822122013d80ed7f3d8b7d277905f75d2b84f40665070c722cc0621d3a31784efc4b04864736f6c63430007030033",
  "linkReferences": {},
  "deployedLinkReferences": {}
}