{
  "_format": "hh-sol-artifact-1",
  "contractName": "Quiz",
  "sourceName": "contracts/Quiz.sol",
  "abi": [
    {
      "inputs": [
        {
          "internalType": "uint256",
          "name": "_stake",
          "type": "uint256"
        }
      ],
      "stateMutability": "nonpayable",
      "type": "constructor"
    },
    {
      "anonymous": false,
      "inputs": [
        {
          "indexed": true,
          "internalType": "address",
          "name": "player",
          "type": "address"
        },
        {
          "indexed": false,
          "internalType": "uint256",
          "name": "stake",
          "type": "uint256"
        }
      ],
      "name": "ContributionRecieved",
      "type": "event"
    },
    {
      "inputs": [
        {
          "internalType": "address payable",
          "name": "winner",
          "type": "address"
        }
      ],
      "name": "payout",
      "outputs": [],
      "stateMutability": "nonpayable",
      "type": "function"
    },
    {
      "stateMutability": "payable",
      "type": "receive"
    }
  ],
  "bytecode": "0x608060405234801561001057600080fd5b506040516105083803806105088339818101604052602081101561003357600080fd5b8101908080519060200190929190505050336000806101000a81548173ffffffffffffffffffffffffffffffffffffffff021916908373ffffffffffffffffffffffffffffffffffffffff160217905550806001819055505061046d8061009b6000396000f3fe6080604052600436106100225760003560e01c80630b7e9c44146100d8576100d3565b366100d3576001543414610081576040517f08c379a000000000000000000000000000000000000000000000000000000000815260040180806020018281038252602e8152602001806103e2602e913960400191505060405180910390fd5b3373ffffffffffffffffffffffffffffffffffffffff167fb0d54a5c159e326a32e0ce3ef202891b3b6138049cee22af7f0239b28d5bd1316001546040518082815260200191505060405180910390a2005b600080fd5b3480156100e457600080fd5b50610127600480360360208110156100fb57600080fd5b81019080803573ffffffffffffffffffffffffffffffffffffffff169060200190929190505050610129565b005b60008054906101000a900473ffffffffffffffffffffffffffffffffffffffff1673ffffffffffffffffffffffffffffffffffffffff163373ffffffffffffffffffffffffffffffffffffffff16146101cd576040517f08c379a00000000000000000000000000000000000000000000000000000000081526004018080602001828103825260288152602001806104106028913960400191505060405180910390fd5b60003073ffffffffffffffffffffffffffffffffffffffff163190506000601482816101f557fe5b0490506000606060008054906101000a900473ffffffffffffffffffffffffffffffffffffffff1673ffffffffffffffffffffffffffffffffffffffff168360405180600001905060006040518083038185875af1925050503d806000811461027a576040519150601f19603f3d011682016040523d82523d6000602084013e61027f565b606091505b5091509150816102f7576040517f08c379a000000000000000000000000000000000000000000000000000000000815260040180806020018281038252601f8152602001807f4661696c656420746f2073656e64206665657320746f206465706c6f7965720081525060200191505060405180910390fd5b600060608673ffffffffffffffffffffffffffffffffffffffff1685870360405180600001905060006040518083038185875af1925050503d806000811461035b576040519150601f19603f3d011682016040523d82523d6000602084013e610360565b606091505b5091509150816103d8576040517f08c379a000000000000000000000000000000000000000000000000000000000815260040180806020018281038252601e8152602001807f4661696c656420746f2073656e6420657468657220746f2077696e6e6572000081525060200191505060405180910390fd5b5050505050505056fe416c6c20706c6179657273206861766520746f20636f6e74726962757465207468652073616d6520616d6f756e744f6e6c7920746865206465706c6f7965722063616e207472696767657220746865207061796f7574a26469706673582212204e664d25142d8a34c670916646e7e3f1dabd1680a007da43238c7490b3d7fd8e64736f6c63430007030033",
  "linkReferences": {},
  "deployedLinkReferences": {}
}